:10000000B9C00000D6C00000D4C00000D2C00000BB
:10001000D0C00000CEC00000CCC00000CAC00000AC
:10002000C8C00000C6C00000C4C00000C2C00000BC
:10003000C0C000009CC20000BCC00000BAC00000EC
:10004000B8C00000B6C00000B4C00000CAC10000C3
:10005000B0C00000AEC00000ACC00000AAC00000EC
:10006000A8C00000A6C00000A4C00000A2C00000FC
:10007000A0C000009EC000009CC000009AC000000C
:1000800098C0000096C0000094C00000AD041205A6
:10009000B9042F059505F20507061C06310654061E
:1000A0007D06A306D0069F07CE07FB072208490856
:1000B00070089608C008CA06CD06D306C60803070E
:1000C0002A0751077807D608F208DD080A0920092F
:1000D000370958096F0988099009A709AF094D0C1C
:1000E000580A980ADF0AE70AFE0A060B1D0BD40815
:1000F000D208D008C609E9090B0A260A3C0A4A0AAE
:10010000D608F208DD080A092C09370958096F09D1
:1001100088099009A709AF094D0C580A980ADF0A07
:10012000E70AFE0A060B1D0BD408D208D008C60940
:10013000E9090B0A260A3C0A4A0AD608F2084D0CBD
:100140000A092009370958096F0988099009A70980
:10015000AF094D0C580A980ADF0AE70AFE0A060B97
:100160001D0BD408D208D008C609E9090B0A260AD3
:100170003C0A4A0A11241FBECFEFD0E4DEBFCDBF38
:1001800013E0A0E0B1E0E0E9FDE100E00BBF02C058
:1001900007900D92A23AB107D9F723E0A2EAB3E0A3
:1001A00001C01D92AC3CB207E1F70E94510C0C94C7
:1001B000C60E26CF181619065CF0089500002150CF
:1001C0003109E1F74F5F5F4F8417950719F40895E0
:1001D00040E050E027E033E0F1CF5E9888B95F9AC5
:1001E00000005F9882E090E0E5CF089581E0F5CFD0
:1001F0000895813118F48158F0CF08958155EDCFDD
:10020000089584E690E0D6DF88E3E7DF86E0E5DF67
:100210008FE0E3DF81E0E1DF8AE090E0CBCF08957B
:100220005E9A88B95F9A00005F9881E090E0C2CF43
:1002300008951F93CF93DF93FB019081992351F091
:10024000EB0111E0180FD5DF8991EADF812F98814A
:100250009111F7CFDF91CF911F9108958091BF0346
:10026000813009F44DC020F0823009F44DC04FC0F8
:100270009091BA038091B403981721F0599882E0C5
:100280008093BF038091B4038336C1F49091C4037B
:100290009130A1F49091B903913009F48BC0911180
:1002A00047C04091BD035091BE032091CA033091D5
:1002B000CB032417350708F471C03AC09091B903F5
:1002C000911136C04091BD035091BE032091CA03E5
:1002D0003091CB032417350758F59091C703981731
:1002E00038F12091BB033091BC038091C8039091F9
:1002F000C90382179307E0F481E08093BF033EC0F7
:1003000082E08093BF033CC01092BF031AC01092DA
:10031000C7031092C4031092B0031092C603109248
:10032000B1038091BA038093B4031092BF0315C048
:100330008091BF03813011F120F0823009F04EC06E
:100340001FC08091B1038A3040F01092B1038091B8
:10035000C6038F5F8093C6030BC08091C6038333AF
:1003600038F01092C6038091C4038F5F8093C4035A
:100370008091B1038F5F8093B10330C0599A2EC032
:10038000589A8091BA038093B4031092C7031092D5
:10039000C4031092C6031092B10320C04091C80359
:1003A0005091C9032091BB033091BC0342175307FE
:1003B00088F093CF2091BB033091BC038091C80398
:1003C0009091C9038217930708F0B2CF81E0809320
:1003D000BF03D4CF91E09093BF0374CF80E090E04F
:1003E00008951F920F920FB60F9211248F938EB51E
:1003F0008093AF038F910F900FBE0F901F901895B1
:100400008FEE85B90000189B29C0199B29C01A9B43
:1004100029C01B9B29C08FED85B90000189B26C001
:10042000199B26C01A9B26C01B9B26C08FEB85B943
:100430000000189B23C0199B23C01A9B23C01B9B41
:1004400023C08FE785B90000189B20C0199B20C0EE
:100450001A9B20C01B9B20C080E0089581E3089573
:1004600084E3089587E308958AE2089582E3089576
:1004700085E3089588E3089580E3089583E308956C
:1004800086E3089589E3089583E2089581E4089559
:1004900082E4089583E4089584E40895CF92DF927E
:1004A000EF92FF921F93CF93DF931092A503809159
:1004B000AA03882309F453C080E01BE0C091B50370
:1004C000D091B603189FC00DD11D11244D815E81BE
:1004D0006F81788589819A81AB81BC8148175907E2
:1004E0006A077B07B0F08881E985FA85082E000C41
:1004F000990B099588838091A503E091B503F0914C
:10050000B603189FE00DF11D112415821682178283
:1005100010868091A503E091B503F091B603189F72
:10052000E00DF11D1124C580D680E780F084409154
:1005300008015091090160910A0170910B014C0D65
:100540005D1D6E1D7F1D45835683678370878F5F9A
:100550008093A5039091AA03891708F4AFCFDF9188
:10056000CF911F91FF90EF90DF90CF9008951F9251
:100570000F920FB60F9211240BB60F922F933F9349
:100580004F935F936F937F938F939F93AF93BF939B
:10059000EF93FF938091AB039091AC03A091AD03D7
:1005A000B091AE030197A109B1098093AB03909379
:1005B000AC03A093AD03B093AE03892B8A2B8B2B96
:1005C00089F46CDF8091080190910901A0910A01E2
:1005D000B0910B018093AB039093AC03A093AD0358
:1005E000B093AE03FF91EF91BF91AF919F918F9127
:1005F0007F916F915F914F913F912F910F900BBE23
:100600000F900FBE0F901F90189560930801709384
:10061000090180930A0190930B016093AB037093DF
:10062000AC038093AD039093AE0308958BE0809369
:1006300081008DE790E0909389008093880082E0AC
:1006400080936F00109285001092840080910801C1
:1006500090910901A0910A01B0910B018093AB0325
:100660009093AC03A093AD03B093AE038FB78068B3
:100670008FBF089580E480937C00EAE7F0E08081FA
:10068000806E8083089584E080937C008EE100007A
:100690008150E9F78EE18093A403809178009091D6
:1006A00079009093A9038093A80385E080937C0050
:1006B0008EE100008150E9F78EE18093A4038091E0
:1006C0007800909179009093A7038093A6030895F2
:1006D00020E030E058E0E82FF0E052B942B1BF012D
:1006E000022E02C0759567950A94E2F7962F9170D5
:1006F000942B92B9129A2F5F3F4F2830310569F73A
:10070000119A12B80895262F30E0BC01C901029653
:100710000C94B30E08950F931F93CF93DF9300D0E3
:1007200000D000D0CDB7DEB75A836B837C838D8336
:100730009E83022F10E0642FC8010E94A50E6A81DB
:10074000C80101960E94A50E6B817C81C8010296AA
:100750000E94B30E6D817E81C80104960E94B30E83
:1007600026960FB6F894DEBF0FBECDBFDF91CF91B6
:100770001F910F9108950F931F93CF93DF93C82F6D
:10078000D0E0CE010E94980E09EB13E0F8018083BF
:10079000CE0101960E94980EF8018183CE01029647
:1007A0000E94A00EF80193838283CE0104960E94DA
:1007B000A00EF80195838483DF91CF911F910F9153
:1007C000089586E080937C008EE100008150E9F777
:1007D0008EE18093A30380917800909179009093AB
:1007E000C9038093C803089587E080937C008EE15D
:1007F00000008150E9F78EE18093A2038091780098
:10080000909179009093CB038093CA0308958091CF
:10081000C50381111092C50336DFD3DFE5DF809178
:10082000C50390E0089520E030E040E05FE30E94DF
:10083000AC0C0C94790D0895FF920F931F93CF93F6
:10084000DF93F82EEB018091B703813099F480E0BB
:1008500090E00E943C0D20E030E048EC5DE30E9417
:100860001D0EE1DF20E030E0A9010E94AC0C0E94E7
:10087000100DEB019E0136952795369527953695F7
:100880002795A5ECB0E20E94890E8C011295029585
:100890000F7001271F7001278F2DABDCC801C09698
:1008A000BFDC28EE33E0029FC001039F900D129F32
:1008B000900D1124C81BD90B9E01369527953695AE
:1008C0002795ABE7B4E10E94890E8C011695079538
:1008D00081E08F0D8EDCC801C096A2DC24E6209F4B
:1008E000C001219F900D1124C81BD90B9E01ADECB6
:1008F000BCEC0E94890E8C011695079516950795FC
:100900001695079582E08F0D74DCC801C09688DCCF
:1009100083E08F0D6EDCE096C801880F991F000FF1
:10092000111F000F111F000F111F080F191FCE01FB
:10093000801B910B75DCDF91CF911F910F91FF9080
:100940000895CF93DF93EC018D31910508F01BC41E
:10095000FC01EA5BFF4F0C94800E8091A8039091FC
:10096000A9038335934008F421C440DC1092B203FC
:1009700028C48091A8039091A903833523E09207AE
:1009800008F407C72091B203211108C72FDC81E0CA
:100990008093B2032CC02091B203213021F426DCD5
:1009A0001092B20315C08335934008F42CC728C7B2
:1009B0008091B203813009F0F6C618DC82E08093A2
:1009C000B203C3E0D0E024C08091B20381110BC018
:1009D0008091A6039091A7038132934008F419C730
:1009E00005DCCDE0D0E08091B203813089F48091C4
:1009F000A6039091A7038132934050F0F7DB8091DA
:100A0000A6039091A7038639910508F0BFC408C0DA
:100A10008091A6039091A7038639910508F0B8C389
:100A2000E5DBE0C38091A6039091A7038132934058
:100A300010F0DCDBC2C38091A8039091A903863932
:100A4000910528F4D3DB81E08093B703CBC38335D2
:100A5000934008F4C7C3CADB1092B703C3C38091A5
:100A6000A8039091A9038639910508F0DBC680910F
:100A7000B203823081F4BADB81E08093B2038091CB
:100A8000A8039091A903833523E0920708F08FC64D
:100A9000C2E0D0E093C68091A8039091A90383356A
:100AA00023E0920708F48AC62091B203223009F0AD
:100AB00080C69CDB83E08093B2032DC02091B203FB
:100AC000233029F493DB82E08093B20310C0833596
:100AD000934008F0B1C6BCC689DB84E08093B203C2
:100AE000C4E0D0E055C38091B203823079F48091A4
:100AF000A6039091A7038132934008F449C376DBA3
:100B00008091B203833009F4A9C6E9C38091B2038E
:100B1000833009F03DC38091A6039091A7038132F1
:100B2000934008F465C662DBA2C38091A80390914C
:100B3000A90386399105E8F48091B203843079F4F1
:100B400055DB83E08093B2038091A8039091A903C1
:100B50008639910508F48BC6C3E0D0E018C08091B7
:100B6000B203853009F02FC641DB84E08093B203E5
:100B700004C08091B203843051F48091A603909117
:100B8000A70381329340C8F031DBCAE0D0E0809106
:100B9000B203853091F48091A6039091A70381322E
:100BA000934008F46CC622DB8091A8039091A903BE
:100BB0008335934008F4ACC36AC68091A803909132
:100BC000A9038335934008F4E3C28091B2038430D3
:100BD00009F006C602C0C8E0D0E008DB85E08093DB
:100BE000B20306C68091A8039091A9038659910982
:100BF0008D3B924010F0FADA5BC38091A60390918E
:100C0000A7038639910508F032C3F0DA03C3809157
:100C1000A8039091A903865991098D3B924010F049
:100C2000E5DA25C38091A6039091A7038639910543
:100C300008F03EC3DBDAEEC28091A8039091A903CD
:100C40008639910508F0C3C5D1DA1092B2038091BC
:100C5000A6039091A7038639910508F0B2C2C6DABF
:100C6000D9C28091A8039091A9038639910528F4EF
:100C7000BDDA1092B203C2E0D0E08091A603909159
:100C8000A7038639910550F4B1DA8091A6039091BB
:100C9000A7038132934008F4D3C204C08132934049
:100CA00008F476C2A3DA3CC38091A6039091A7030F
:100CB0008132934028F09ADA1092B203C6E1D0E074
:100CC0008091A6039091A7038639910550F48EDA9E
:100CD0008091A8039091A9038639910508F018C363
:100CE00008C08091A8039091A9038639910508F066
:100CF0004FC27CDA1092B20364C28091A803909133
:100D0000A9038639910528F471DA1092B203C2E082
:100D1000D0E08091A6039091A7038639910568F4ED
:100D200065DA84E08093B2038091A6039091A703D3
:100D30008132934008F488C204C08132934008F4A1
:100D400027C254DA0CC38091A6039091A703813285
:100D5000934018F04BDAC5E1D0E08091A603909162
:100D6000A7038639910550F441DA8091A803909148
:100D7000A9038639910508F0EAC208C08091A8034A
:100D80009091A9038639910508F002C22FDA1092DA
:100D9000B20317C21092B20314C21092B20311C26E
:100DA0001092B2030EC28091A6039091A7038132E4
:100DB000934048F08091C003813029F41092C00321
:100DC00015DAC8E1D0E08091A8039091A903863993
:100DD000910560F40BDA1092B2038091A603909112
:100DE000A7038639910508F0ECC108C08091A603DD
:100DF0009091A7038639910508F0CAC1F7D981E01F
:100E00008093B203E8C18091A8039091A903863929
:100E1000910518F4EBD9CCE1D0E08091A803909132
:100E2000A9038335934050F0E1D98091A6039091B6
:100E3000A7038639910508F009C308C08091A6036D
:100E40009091A7038639910508F0A2C1CFD91092DD
:100E5000B203B7C18091A8039091A9038639910587
:100E600018F4C4D9C9E1D0E08091A8039091A903F6
:100E70008335934050F0BAD98091A6039091A7038F
:100E80008639910508F0F8C208C08091A6039091B8
:100E9000A7038639910508F07BC1A8D91092B20347
:100EA00090C18091A8039091A9038639910518F407
:100EB0009DD9CAE1D0E08091A8039091A903833520
:100EC000934050F093D98091A6039091A70386395F
:100ED000910508F0DFC208C08091A6039091A70396
:100EE0008639910508F054C181D91092B20369C1C5
:100EF0008091A8039091A9038639910518F476D9B9
:100F0000CBE1D0E08091A8039091A9038335934071
:100F100050F06CD98091A6039091A7038639910572
:100F200008F079C208C08091A6039091A703863982
:100F3000910508F02DC15AD91092B20342C1809197
:100F4000A6039091A7038132934078F08091C0036B
:100F5000813059F41092C00349D98BE191E090930C
:100F6000010180930001CEE0D0E08091A603909132
:100F7000A7038639910540F08091A8039091A903B9
:100F80008639910508F004C131D98BE191E0909345
:100F90000101809300011092B20313C18091A60356
:100FA0009091A7038132934048F08091C003813033
:100FB00029F41092C0031AD9CFE0D0E08091A603A3
:100FC0009091A7038639910550F410D98091A80318
:100FD0009091A9038639910508F06AC208C08091F2
:100FE000A8039091A9038639910508F0D1C0FED8D5
:100FF0001092B203E6C08091A6039091A7038132BC
:10100000934018F0F3D8C0E1D0E08091A60390910E
:10101000A7038639910550F4E9D88091A8039091EF
:10102000A9038639910508F083C208C08091A803FE
:101030009091A9038639910508F0AAC0D7D81092DB
:10104000B203BFC08091A6039091A7038132934061
:1010500018F0CCD8C1E1D0E08091A6039091A7030D
:101060008639910550F4C2D88091A8039091A903C4
:101070008639910508F0A3C208C08091A803909119
:10108000A9038639910508F083C0B0D81092B20345
:1010900098C08091A6039091A7038132934018F0E5
:1010A000A5D8C2E1D0E08091A6039091A70386392C
:1010B000910550F49BD88091A8039091A90386399B
:1010C000910508F07CC208C08091A8039091A90303
:1010D0008639910508F05CC089D81092B20371C0BE
:1010E0008091A6039091A7038132934018F07ED897
:1010F000C3E1D0E08091A6039091A70386399105C2
:1011000050F474D88091A8039091A9038639910571
:1011100008F074C207C08091A8039091A903863992
:101120009105B0F563D81092B2034BC08091A6032D
:101130009091A7038132934038F08091B8038823BF
:1011400019F054D8C4E1D0E08091A6039091A70390
:101150008639910550F44AD88091A8039091A9034B
:101160008639910508F052C207C08091A80390917A
:10117000A9038639910560F439D81092B20321C0D1
:101180001092B2031EC01092B20310C0C9E1D0E0A9
:10119000CD31D10508F081C3FE01ED59FF4FB0C537
:1011A000C2E3BCC2C2E3A6C2C2E36CC26DE171E09D
:1011B00081E03FD8C0E0D0E070C38091B2038111DC
:1011C00007C06EE371E081E034D8C2E0D0E065C3CF
:1011D000813009F0B7C26DE571E081E02AD8C2E044
:1011E000D0E05BC36CE771E081E023D88091B70366
:1011F000813039F46BE871E085E11BD8C1E0D0E0C3
:101200004CC38111A2C263E971E085E112D8C1E04B
:10121000D0E043C38091B203823039F46BE971E0CE
:1012200081E007D8C3E0D0E038C3833009F090C232
:1012300069EB71E081E00E941901C3E0D0E02DC3A9
:101240008091B203843041F467ED71E081E00E9447
:101250001901C4E0D0E021C3853009F07CC267EFFA
:1012600071E081E00E941901C4E0D0E016C367E19B
:1012700072E081E00E94190164E272E081E10E9463
:1012800019018091B903813031F46FE272E08EE090
:101290000E94190105C063E372E08EE00E9419010B
:1012A0006091BA0370E08CE1C7DAC5E0D0E0F5C226
:1012B00066E372E081E00E9419016AE372E081E175
:1012C0000E941901C9EBD3E06A817B8184E0B4DA22
:1012D0006C817D8184E1B0DAC6E0D0E0DEC26EE3ED
:1012E00072E081E00E94190168E472E081E10E94ED
:1012F00019016091C8037091C9038BE09DDA609178
:10130000CA037091CB038BE197DAC7E0D0E0C5C286
:1013100062E572E081E00E941901C8E0D0E0BDC240
:1013200062E772E081E00E9419016091CA03709146
:10133000CB037093BE036093BD038CE07DDA6EE750
:1013400072E089E10E941901C9E0D0E0A6C267E815
:1013500072E081E00E941901CAE0D0E09EC262E71B
:1013600072E081E00E9419016091C8037091C90385
:101370007093BC036093BB038CE05EDA6EE772E0AF
:1013800089E10E941901CBE0D0E087C267EA72E0F0
:1013900081E00E94190134D8813351F031D8823371
:1013A00039F02ED8833321F02BD8843309F0D6C1FD
:1013B00081E08093C0038BE10E94F90021D8805323
:1013C0008093B80390E0C0960E941001C7E1D0E07E
:1013D00064C28091B803CFD98091B803813021F4E1
:1013E00084E18093C10311C0823021F483EB8093A8
:1013F000C1030BC0833021F486EB8093C10305C089
:10140000843019F484ED8093C1038091C10360D9C5
:10141000C8E1D0E042C261EC72E081E00E941901B3
:101420008091B903813041F46FE272E081E10E9462
:101430001901C9E1D0E031C2811193C163E372E0C7
:1014400081E10E941901C9E1D0E027C262ED72E09A
:1014500081E00E9419018DE00E94F9008091BA0399
:1014600090E0C0960E9410016EED72E081E10E9452
:101470001901CAE1D0E011C263EE72E081E00E947E
:1014800019016091BB037091BC0381E1D5D9CBE117
:10149000D0E003C260EF72E081E00E941901609128
:1014A000BD037091BE0381E1C7D9CCE1D0E0F5C1A5
:1014B000609102017091030181E00E941901609125
:1014C00000017091010186E10E9419010E94000251
:1014D000813471F48FE292E09093010180930001D6
:1014E00081E08093B9038093C003CDE0D0E0D5C103
:1014F0000E940002823471F48EEF92E09093010119
:10150000809300011092B90381E08093C003CDE085
:10151000D0E0C3C10E9400028A3209F025C18BE1EC
:1015200091E09093010180930001CDE0D0E0B5C13E
:10153000609104017091050181E00E9419010E94EF
:101540000002813409F413C10E940002823409F4BC
:1015500011C10E940002833409F40FC10E940002ED
:10156000843409F40DC10E940002882309F40BC1E0
:101570000E9400028A3281F483E68093BA038CE1F0
:101580000E94F90089E390E00E94100181E08093BD
:10159000C003CEE0D0E081C18CE10E94F9000E943E
:1015A000000290E00E9410010E940002805380938C
:1015B000BA0381E08093C003CEE0D0E06EC167E85B
:1015C00072E081E00E941901CFE0D0E066C162E7DD
:1015D00072E081E00E9419016091C8037091C90313
:1015E0007093BC036093BB038CE026D96EE772E076
:1015F00089E10E941901C0E1D0E04FC162E073E0CF
:1016000081E00E941901C1E1D0E047C162E273E0CC
:1016100081E00E9419016091CA037091CB0370931D
:10162000BE036093BD038CE007D96EE772E089E1E9
:101630000E941901C2E1D0E030C16EE273E081E0A6
:101640000E9419010E940002813369F00E94000289
:10165000823349F00E940002833329F00E94000285
:10166000843309F093C08BE10E94F9000E940002CC
:1016700080538093B80390E0C0960E941001C3E1AC
:10168000D0E00BC168E473E081E00E941901C15011
:10169000C9F72091B8034091B9035091BA03609102
:1016A000BB037091BC038091BD039091BE0333D8FE
:1016B0008091B803813021F484E18093C10311C08B
:1016C000823021F483EB8093C1030BC0833021F47B
:1016D00086EB8093C10305C0843019F484ED8093B8
:1016E000C1038091C1030E9468030E94F600C4E117
:1016F000D0E0D3C068E473E081E00E941901C150DA
:10170000C9F76091B8038091BB039091BC030E941C
:1017100083030E94F600C5E1D0E0BFC068E473E037
:1017200081E00E941901C150C9F76091B80380910E
:10173000BD039091BE030E9483030E94F600C6E1A0
:10174000D0E0ABC0C2E0D0E0A8C0C1E0D0E0A5C00E
:10175000C3E0D0E0A2C0C4E0D0E09FC0C7E1D0E0C9
:101760009CC0C9E1D0E099C0CDE0D0E096C0CEE009
:10177000D0E093C0CEE0D0E090C0CEE0D0E08DC00D
:10178000CEE0D0E08AC0CEE0D0E087C0C3E1D0E0B8
:1017900084C08639910508F4FEC816C986399105BA
:1017A00008F006C9F8C8882309F412C932C0C2E09B
:1017B000D0E08639910508F481C944C08639910585
:1017C00008F091C97BC9843009F059C0D6C980910D
:1017D000A6039091A7038639910508F440CA7FCDEE
:1017E000CD31D10508F059C0FE01E058FF4F88C245
:1017F000CD31D10508F051C0FE01E356FF4F80C244
:101800008091B203D0CF8091B203882309F4E0C85D
:10181000FFC88091A6039091A7038639910508F42B
:10182000FFC8CBCC8091A8039091A903833523E016
:10183000920708F039C957C98091B203823009F084
:10184000A7CC55C98091B203833009F445C9A0CC17
:101850008091B203823009F09BCC49C98091A603E4
:101860009091A7038132934008F05DC938CD8091F3
:10187000B203C3E0D0E0A7CF8091B203B1CF809193
:10188000A8039091A90383359340B0F781CC809150
:10189000B203843009F49FC93BCDCE01DF91CF91D3
:1018A0000895CF93DF93CDB7DEB7A1970FB6F89425
:1018B000DEBF0FBECDBF8FE081B91FEF12B980EF41
:1018C00084B915B917B918B81AB91BB80E943A03E8
:1018D0000E94010183E08093AA03CE0101969093B8
:1018E000B6038093B503198384E690E0A0E0B0E0EE
:1018F0008A839B83AC83BD838E839F83A887B987AC
:101900002EE231E03B872A871C878D879E87AF8731
:10191000B88B898B9A8BAB8BBC8B87E094E09E8BCA
:101920008D8B1F8B8CE291E0A0E0B0E0888F998FC7
:10193000AA8FBB8F8C8F9D8FAE8FBF8F81EA94E073
:1019400099A388A364E670E080E090E00E9405031C
:101950000E941603FFCF5058BB27AA270ED01CC1E8
:101960000DD130F012D120F031F49F3F11F41EF46C
:1019700002C10EF4E095E7FBCFC0E92F1ED180F342
:10198000BA17620773078407950718F071F49EF57C
:101990004DC10EF4E0950B2EBA2FA02D0B01B9010D
:1019A00090010C01CA01A0011124FF27591B99F0D5
:1019B000593F50F4503E68F11A16F040A22F232FE1
:1019C000342F4427585FF3CF469537952795A79531
:1019D000F0405395C9F77EF41F16BA0B620B730BD8
:1019E000840BBAF09150A1F0FF0FBB1F661F771F49
:1019F000881FC2F70EC0BA0F621F731F841F48F4FE
:101A0000879577956795B795F7959E3F08F0B3CF83
:101A10009395880F08F09927EE0F9795879508956D
:101A2000D4D088F09F5790F0B92F9927B751A0F0E4
:101A3000D1F0660F771F881F991F1AF0BA95C9F762
:101A400012C0B13081F0F2D0B1E00895EFC0672F3D
:101A5000782F8827B85F39F0B93FCCF38695779512
:101A60006795B395D9F73EF49095809570956195FB
:101A70007F4F8F4F9F4F0895E89409C097FB3EF426
:101A800090958095709561957F4F8F4F9F4F9923CB
:101A9000A9F0F92F96E9BB279395F6958795779549
:101AA0006795B795F111F8CFFAF4BB0F11F460FF09
:101AB0001BC06F5F7F4F8F4F9F4F16C0882311F061
:101AC00096E911C0772321F09EE8872F762F05C075
:101AD000662371F096E8862F70E060E02AF09A9510
:101AE000660F771F881FDAF7880F9695879597F905
:101AF000089585D080F09F3740F491110EF097C083
:101B000060E070E080E89FEB089526F41B16611DED
:101B1000711D811D07C021C097F99F6780E870E0A3
:101B200060E00895882371F4772321F09850872B83
:101B3000762F07C0662311F499270DC09051862B8C
:101B400070E060E02AF09A95660F771F881FDAF739
:101B5000880F9695879597F908959F3F31F091509A
:101B600020F4879577956795B795880F911D969581
:101B7000879597F908959FEF80EC089500240A94C3
:101B80001616170618060906089500240A94121658
:101B90001306140605060895092E0394000C11F48B
:101BA000882352F0BB0F40F4BF2B11F460FF04C038
:101BB0006F5F7F4F8F4F9F4F089557FD9058440F91
:101BC000551F59F05F3F71F04795880F97FB991F9C
:101BD00061F09F3F79F08795089512161306140659
:101BE000551FF2CF4695F1DF08C0161617061806E6
:101BF000991FF1CF86957105610508940895E5DF79
:101C0000A0F0BEE7B91788F4BB279F3860F416161A
:101C1000B11D672F782F8827985FF7CF8695779526
:101C20006795B11D93959639C8F30895E894BB273D
:101C300066277727CB0197F908950BD0ADCF9EDFAC
:101C400028F0A3DF18F0952309F066CF94CF112474
:101C5000EECFB3DFA0F3959FD1F3950F50E0551F62
:101C6000629FF001729FBB27F00DB11D639FAA27F1
:101C7000F00DB11DAA1F649F6627B00DA11D661F40
:101C8000829F2227B00DA11D621F739FB00DA11D61
:101C9000621F839FA00D611D221F749F3327A00D1B
:101CA000611D231F849F600D211D822F762F6A2FB7
:101CB00011249F5750408AF0E1F088234AF0EE0F3C
:101CC000FF1FBB1F661F771F881F91505040A9F749
:101CD0009E3F510570F020CFAACF5F3FECF3983EB6
:101CE000DCF3869577956795B795F795E7959F5FB0
:101CF000C1F7FE2B880F911D9695879597F908954A
:101D0000EE0FFF1F0024001C0BBE0790F691E02D84
:101D10000994A29FB001B39FC001A39F700D811DC4
:101D20001124911DB29F700D811D1124911D0895E4
:101D3000F999FECF92BD81BDF89A992780B5089593
:101D4000A8E1B0E042E050E013C0262FF999FECFA1
:101D50001FBA92BD81BD20BD0FB6F894FA9AF99AC8
:101D60000FBE01960895F1DF272FF0CFDC01CB01E4
:101D7000FC01F999FECF06C0F2BDE1BDF89A31969B
:101D800000B40D9241505040B8F70895F894FFCF39
:101D90001B0159036E03880301000000202020204E
:101DA0002020202020202020202020200020202053
:101DB00057656C636F6D6520546F2020203C4C6527
:101DC0006166206F662046616974683E20003E208F
:101DD000536574202050726F66696C652020202046
:101DE0004C6F61642050726F66696C6500202053EF
:101DF0006574202050726F66696C6520203E204C0F
:101E00006F61642050726F66696C6500456E616237
:101E10006C65205363616C65723F003C20596179A9
:101E2000203E003C204E6179203E003E20437572EA
:101E300072656E74204461746120202020417420FA
:101E40004120476C616E63650020204375727265A6
:101E50006E74204461746120203E20417420412032
:101E6000476C616E6365003E2043616C696272611C
:101E70007465204D532020202043616C696272619B
:101E800074652053756E00202043616C6962726135
:101E90007465204D5320203E2043616C696272615D
:101EA00074652053756E0044617974696D652068AE
:101EB000324F3A004672657175656E63793A005922
:101EC0006573004E6F004D533A00534C3A004D6F0E
:101ED0006973747572653A0053756E6C69676874DE
:101EE0003A00312E5365742050686F746F202020A3
:101EF0002020202053656E736F72202020202D2D0E
:101F00003E00322E52656164696E673A200053418B
:101F10005645202D2D3E00312E506C616365204DBD
:101F20006F697374757265202053656E736F7220CC
:101F30002020202D2D3E00536F75726365204D6566
:101F40006D20536C6F7420312C322C332C343F3A7B
:101F500000576174657220447572696E6720446130
:101F600079005761746572206576657279006461E5
:101F70007973004D53205468726573686F6C640008
:101F800053756E205468726573686F6C64004E6F91
:101F90002000332E5365742050686F746F2020200A
:101FA0002020202053656E736F72202020202D2D5D
:101FB0003E00342E52656164696E673A20005365B5
:101FC0006C656374204D656D20536C6F7420312CEB
:101FD000322C332C343F3A00536176696E672050BF
:101FE000726F66696C652E2E004F4B20746F2077E0
:101FF0006174657220696E20206461793F0023203E
:102000006F6620646179206265747765656E7761BB
:10201000746572696E673F004D6F697374757265A0
:102020002053656E73653A20312C322C332C343FAB
:022030003A0074
:00000001FF
